{
  "contractName": "DocumentRegistry",
  "abi": [
    {
      "inputs": [],
      "stateMutability": "nonpayable",
      "type": "constructor"
    },
    {
      "anonymous": false,
      "inputs": [
        {
          "indexed": false,
          "internalType": "string",
          "name": "hash",
          "type": "string"
        },
        {
          "indexed": false,
          "internalType": "uint256",
          "name": "dateAdded",
          "type": "uint256"
        },
        {
          "indexed": false,
          "internalType": "uint256",
          "name": "fileSize",
          "type": "uint256"
        },
        {
          "indexed": false,
          "internalType": "string",
          "name": "fileType",
          "type": "string"
        },
        {
          "indexed": false,
          "internalType": "string",
          "name": "description",
          "type": "string"
        }
      ],
      "name": "DocumentAdded",
      "type": "event"
    },
    {
      "inputs": [],
      "name": "getOwner",
      "outputs": [
        {
          "internalType": "address",
          "name": "",
          "type": "address"
        }
      ],
      "stateMutability": "view",
      "type": "function"
    },
    {
      "inputs": [
        {
          "internalType": "string",
          "name": "hash",
          "type": "string"
        },
        {
          "internalType": "uint256",
          "name": "fileSize",
          "type": "uint256"
        },
        {
          "internalType": "string",
          "name": "fileType",
          "type": "string"
        },
        {
          "internalType": "string",
          "name": "description",
          "type": "string"
        }
      ],
      "name": "add",
      "outputs": [
        {
          "internalType": "uint256",
          "name": "dateAdded",
          "type": "uint256"
        }
      ],
      "stateMutability": "nonpayable",
      "type": "function"
    },
    {
      "inputs": [],
      "name": "getDocumentsCount",
      "outputs": [
        {
          "internalType": "uint256",
          "name": "documentCount",
          "type": "uint256"
        }
      ],
      "stateMutability": "view",
      "type": "function"
    },
    {
      "inputs": [
        {
          "internalType": "uint256",
          "name": "index",
          "type": "uint256"
        }
      ],
      "name": "getDocument",
      "outputs": [
        {
          "internalType": "string",
          "name": "hash",
          "type": "string"
        },
        {
          "internalType": "uint256",
          "name": "dateAdded",
          "type": "uint256"
        },
        {
          "internalType": "uint256",
          "name": "fileSize",
          "type": "uint256"
        },
        {
          "internalType": "string",
          "name": "fileType",
          "type": "string"
        },
        {
          "internalType": "string",
          "name": "description",
          "type": "string"
        }
      ],
      "stateMutability": "view",
      "type": "function"
    },
    {
      "inputs": [
        {
          "internalType": "uint256",
          "name": "index",
          "type": "uint256"
        }
      ],
      "name": "getDocumentStats",
      "outputs": [
        {
          "internalType": "uint256",
          "name": "fileSize",
          "type": "uint256"
        },
        {
          "internalType": "string",
          "name": "fileType",
          "type": "string"
        }
      ],
      "stateMutability": "view",
      "type": "function"
    }
  ],
  "bytecode": "0x608060405234801561001057600080fd5b5033600160006101000a81548173ffffffffffffffffffffffffffffffffffffffff021916908373ffffffffffffffffffffffffffffffffffffffff160217905550610d3e806100616000396000f3fe608060405234801561001057600080fd5b50600436106100575760003560e01c80630bcf963b1461005c5780633f9b250a1461007a578063469fb0e7146100ae578063893d20e8146100de578063adaaecb9146100fc575b600080fd5b61006461012d565b6040516100719190610a78565b60405180910390f35b610094600480360381019061008f919061092e565b610139565b6040516100a59594939291906109f0565b60405180910390f35b6100c860048036038101906100c39190610873565b610368565b6040516100d59190610a78565b60405180910390f35b6100e661050f565b6040516100f391906109d5565b60405180910390f35b6101166004803603810190610111919061092e565b610539565b604051610124929190610a93565b60405180910390f35b60008080549050905090565b6060600080606080600080878154811061015657610155610c45565b5b90600052602060002090600502016040518060a001604052908160008201805461017f90610bb3565b80601f01602080910402602001604051908101604052809291908181526020018280546101ab90610bb3565b80156101f85780601f106101cd576101008083540402835291602001916101f8565b820191906000526020600020905b8154815290600101906020018083116101db57829003601f168201915b50505050508152602001600182015481526020016002820154815260200160038201805461022590610bb3565b80601f016020809104026020016040519081016040528092919081815260200182805461025190610bb3565b801561029e5780601f106102735761010080835404028352916020019161029e565b820191906000526020600020905b81548152906001019060200180831161028157829003601f168201915b505050505081526020016004820180546102b790610bb3565b80601f01602080910402602001604051908101604052809291908181526020018280546102e390610bb3565b80156103305780601f1061030557610100808354040283529160200191610330565b820191906000526020600020905b81548152906001019060200180831161031357829003601f168201915b505050505081525050905080600001518160200151826040015183606001518460800151955095509550955095505091939590929450565b6000600160009054906101000a900473ffffffffffffffffffffffffffffffffffffffff1673ffffffffffffffffffffffffffffffffffffffff163373ffffffffffffffffffffffffffffffffffffffff16146103fa576040517f08c379a00000000000000000000000000000000000000000000000000000000081526004016103f190610a58565b60405180910390fd5b600042905060006040518060a001604052808881526020018381526020018781526020018681526020018581525090506000819080600181540180825580915050600190039060005260206000209060050201600090919091909150600082015181600001908051906020019061047292919061074b565b50602082015181600101556040820151816002015560608201518160030190805190602001906104a392919061074b565b5060808201518160040190805190602001906104c092919061074b565b5050507f2e2d0b95a4e96d2da33cf5006c18d8ba28a232d1143c1729482253462be7617e87838888886040516104fa9594939291906109f0565b60405180910390a18192505050949350505050565b6000600160009054906101000a900473ffffffffffffffffffffffffffffffffffffffff16905090565b60006060600080848154811061055257610551610c45565b5b90600052602060002090600502016040518060a001604052908160008201805461057b90610bb3565b80601f01602080910402602001604051908101604052809291908181526020018280546105a790610bb3565b80156105f45780601f106105c9576101008083540402835291602001916105f4565b820191906000526020600020905b8154815290600101906020018083116105d757829003601f168201915b50505050508152602001600182015481526020016002820154815260200160038201805461062190610bb3565b80601f016020809104026020016040519081016040528092919081815260200182805461064d90610bb3565b801561069a5780601f1061066f5761010080835404028352916020019161069a565b820191906000526020600020905b81548152906001019060200180831161067d57829003601f168201915b505050505081526020016004820180546106b390610bb3565b80601f01602080910402602001604051908101604052809291908181526020018280546106df90610bb3565b801561072c5780601f106107015761010080835404028352916020019161072c565b820191906000526020600020905b81548152906001019060200180831161070f57829003601f168201915b5050505050815250509050806040015181606001519250925050915091565b82805461075790610bb3565b90600052602060002090601f01602090048101928261077957600085556107c0565b82601f1061079257805160ff19168380011785556107c0565b828001600101855582156107c0579182015b828111156107bf5782518255916020019190600101906107a4565b5b5090506107cd91906107d1565b5090565b5b808211156107ea5760008160009055506001016107d2565b5090565b60006108016107fc84610ae8565b610ac3565b90508281526020810184848401111561081d5761081c610ca8565b5b610828848285610b71565b509392505050565b600082601f83011261084557610844610ca3565b5b81356108558482602086016107ee565b91505092915050565b60008135905061086d81610cf1565b92915050565b6000806000806080858703121561088d5761088c610cb2565b5b600085013567ffffffffffffffff8111156108ab576108aa610cad565b5b6108b787828801610830565b94505060206108c88782880161085e565b935050604085013567ffffffffffffffff8111156108e9576108e8610cad565b5b6108f587828801610830565b925050606085013567ffffffffffffffff81111561091657610915610cad565b5b61092287828801610830565b91505092959194509250565b60006020828403121561094457610943610cb2565b5b60006109528482850161085e565b91505092915050565b61096481610b35565b82525050565b600061097582610b19565b61097f8185610b24565b935061098f818560208601610b80565b61099881610cb7565b840191505092915050565b60006109b0601483610b24565b91506109bb82610cc8565b602082019050919050565b6109cf81610b67565b82525050565b60006020820190506109ea600083018461095b565b92915050565b600060a0820190508181036000830152610a0a818861096a565b9050610a1960208301876109c6565b610a2660408301866109c6565b8181036060830152610a38818561096a565b90508181036080830152610a4c818461096a565b90509695505050505050565b60006020820190508181036000830152610a71816109a3565b9050919050565b6000602082019050610a8d60008301846109c6565b92915050565b6000604082019050610aa860008301856109c6565b8181036020830152610aba818461096a565b90509392505050565b6000610acd610ade565b9050610ad98282610be5565b919050565b6000604051905090565b600067ffffffffffffffff821115610b0357610b02610c74565b5b610b0c82610cb7565b9050602081019050919050565b600081519050919050565b600082825260208201905092915050565b6000610b4082610b47565b9050919050565b600073ffffffffffffffffffffffffffffffffffffffff82169050919050565b6000819050919050565b82818337600083830152505050565b60005b83811015610b9e578082015181840152602081019050610b83565b83811115610bad576000848401525b50505050565b60006002820490506001821680610bcb57607f821691505b60208210811415610bdf57610bde610c16565b5b50919050565b610bee82610cb7565b810181811067ffffffffffffffff82111715610c0d57610c0c610c74565b5b80604052505050565b7f4e487b7100000000000000000000000000000000000000000000000000000000600052602260045260246000fd5b7f4e487b7100000000000000000000000000000000000000000000000000000000600052603260045260246000fd5b7f4e487b7100000000000000000000000000000000000000000000000000000000600052604160045260246000fd5b600080fd5b600080fd5b600080fd5b600080fd5b6000601f19601f8301169050919050565b7f4e6f74206120636f6e7472616374206f776e6572000000000000000000000000600082015250565b610cfa81610b67565b8114610d0557600080fd5b5056fea264697066735822122050ea4fc57e4479357b5f2e89e63569aa71546c08f30a1dc93da70918da0f7d9c64736f6c63430008070033",
  "immutableReferences": {},
  "source": "// SPDX-License-Identifier: GPL-3.0\r\n\r\npragma solidity ^0.8.7;\r\n\r\ncontract DocumentRegistry {\r\n    struct Document {\r\n        string hash;\r\n        uint256 dateAdded;\r\n        uint256 fileSize;     // Size of the file in bytes\r\n        string fileType;      // Type of the file, e.g., \"pdf\", \"jpg\"\r\n        string description;   // Optional description of the file\r\n    }\r\n\r\n    Document[] private documents;\r\n    address private contractOwner;\r\n\r\n    modifier onlyOwner() {\r\n        require(msg.sender == contractOwner, \"Not a contract owner\");\r\n        _;\r\n    }\r\n\r\n    constructor() {\r\n        contractOwner = msg.sender;\r\n    }\r\n\r\n    // Add this function to get the contract owner\r\n    function getOwner() public view returns (address) {\r\n        return contractOwner;\r\n    }\r\n\r\n\r\n    // Function to add a new document with additional metadata\r\n    event DocumentAdded(string hash, uint256 dateAdded, uint256 fileSize, string fileType, string description);\r\n\r\nfunction add(\r\n    string memory hash,\r\n    uint256 fileSize,\r\n    string memory fileType,\r\n    string memory description\r\n) public onlyOwner returns (uint256 dateAdded) {\r\n    uint256 currentTime = block.timestamp;\r\n    Document memory doc = Document({\r\n        hash: hash,\r\n        dateAdded: currentTime,\r\n        fileSize: fileSize,\r\n        fileType: fileType,\r\n        description: description\r\n    });\r\n    documents.push(doc);\r\n    \r\n    emit DocumentAdded(hash, currentTime, fileSize, fileType, description); // Emit the event\r\n    return currentTime;\r\n}\r\n\r\n\r\n    // Get the total number of documents\r\n    function getDocumentsCount() public view returns (uint256 documentCount) {\r\n        return documents.length;\r\n    }\r\n\r\n    // Retrieve a document's basic information\r\n    function getDocument(uint256 index) public view returns (\r\n        string memory hash,\r\n        uint256 dateAdded,\r\n        uint256 fileSize,\r\n        string memory fileType,\r\n        string memory description\r\n    ) {\r\n        Document memory document = documents[index];\r\n        return (\r\n            document.hash,\r\n            document.dateAdded,\r\n            document.fileSize,\r\n            document.fileType,\r\n            document.description\r\n        );\r\n    }\r\n\r\n    // Retrieve only the file stats of a document\r\n    function getDocumentStats(uint256 index) public view returns (\r\n        uint256 fileSize,\r\n        string memory fileType\r\n    ) {\r\n        Document memory document = documents[index];\r\n        return (\r\n            document.fileSize,\r\n            document.fileType\r\n        );\r\n    }\r\n}\r\n",
  "sourcePath": "C:\\Users\\akdav\\Documents\\KU\\KU2-B\\M5\\25\\document-registry-demo-ethers-js-ver6-ES6-in-browser-es-dev-server-template-ready\\contracts\\documentRegistry.sol",
  "compiler": {
    "name": "solc",
    "version": "0.8.7+commit.e28d00a7.Emscripten.clang"
  },
  "schemaVersion": "3.4.16",
  "updatedAt": "2024-11-11T15:34:54.738Z",
  "devdoc": {
    "kind": "dev",
    "methods": {},
    "version": 1
  },
  "userdoc": {
    "kind": "user",
    "methods": {},
    "version": 1
  }
}